{
  "_format": "hh-sol-artifact-1",
  "contractName": "TokenEth",
  "sourceName": "contracts/TokenEth.sol",
  "abi": [
    {
      "inputs": [],
      "stateMutability": "nonpayable",
      "type": "constructor"
    },
    {
      "anonymous": false,
      "inputs": [
        {
          "indexed": true,
          "internalType": "address",
          "name": "owner",
          "type": "address"
        },
        {
          "indexed": true,
          "internalType": "address",
          "name": "approved",
          "type": "address"
        },
        {
          "indexed": true,
          "internalType": "uint256",
          "name": "tokenId",
          "type": "uint256"
        }
      ],
      "name": "Approval",
      "type": "event"
    },
    {
      "anonymous": false,
      "inputs": [
        {
          "indexed": true,
          "internalType": "address",
          "name": "owner",
          "type": "address"
        },
        {
          "indexed": true,
          "internalType": "address",
          "name": "operator",
          "type": "address"
        },
        {
          "indexed": false,
          "internalType": "bool",
          "name": "approved",
          "type": "bool"
        }
      ],
      "name": "ApprovalForAll",
      "type": "event"
    },
    {
      "anonymous": false,
      "inputs": [
        {
          "indexed": true,
          "internalType": "address",
          "name": "from",
          "type": "address"
        },
        {
          "indexed": true,
          "internalType": "address",
          "name": "to",
          "type": "address"
        },
        {
          "indexed": true,
          "internalType": "uint256",
          "name": "tokenId",
          "type": "uint256"
        }
      ],
      "name": "Transfer",
      "type": "event"
    },
    {
      "inputs": [],
      "name": "admin",
      "outputs": [
        {
          "internalType": "address",
          "name": "",
          "type": "address"
        }
      ],
      "stateMutability": "view",
      "type": "function"
    },
    {
      "inputs": [
        {
          "internalType": "address",
          "name": "to",
          "type": "address"
        },
        {
          "internalType": "uint256",
          "name": "tokenId",
          "type": "uint256"
        }
      ],
      "name": "approve",
      "outputs": [],
      "stateMutability": "nonpayable",
      "type": "function"
    },
    {
      "inputs": [
        {
          "internalType": "address",
          "name": "owner",
          "type": "address"
        }
      ],
      "name": "balanceOf",
      "outputs": [
        {
          "internalType": "uint256",
          "name": "",
          "type": "uint256"
        }
      ],
      "stateMutability": "view",
      "type": "function"
    },
    {
      "inputs": [
        {
          "internalType": "uint256",
          "name": "tokenId",
          "type": "uint256"
        }
      ],
      "name": "burn",
      "outputs": [],
      "stateMutability": "nonpayable",
      "type": "function"
    },
    {
      "inputs": [
        {
          "internalType": "uint256",
          "name": "tokenId",
          "type": "uint256"
        }
      ],
      "name": "getApproved",
      "outputs": [
        {
          "internalType": "address",
          "name": "",
          "type": "address"
        }
      ],
      "stateMutability": "view",
      "type": "function"
    },
    {
      "inputs": [
        {
          "internalType": "address",
          "name": "owner",
          "type": "address"
        },
        {
          "internalType": "address",
          "name": "operator",
          "type": "address"
        }
      ],
      "name": "isApprovedForAll",
      "outputs": [
        {
          "internalType": "bool",
          "name": "",
          "type": "bool"
        }
      ],
      "stateMutability": "view",
      "type": "function"
    },
    {
      "inputs": [
        {
          "internalType": "address",
          "name": "to",
          "type": "address"
        }
      ],
      "name": "mint",
      "outputs": [],
      "stateMutability": "nonpayable",
      "type": "function"
    },
    {
      "inputs": [],
      "name": "name",
      "outputs": [
        {
          "internalType": "string",
          "name": "",
          "type": "string"
        }
      ],
      "stateMutability": "view",
      "type": "function"
    },
    {
      "inputs": [
        {
          "internalType": "uint256",
          "name": "tokenId",
          "type": "uint256"
        }
      ],
      "name": "ownerOf",
      "outputs": [
        {
          "internalType": "address",
          "name": "",
          "type": "address"
        }
      ],
      "stateMutability": "view",
      "type": "function"
    },
    {
      "inputs": [
        {
          "internalType": "address",
          "name": "from",
          "type": "address"
        },
        {
          "internalType": "address",
          "name": "to",
          "type": "address"
        },
        {
          "internalType": "uint256",
          "name": "tokenId",
          "type": "uint256"
        }
      ],
      "name": "safeTransferFrom",
      "outputs": [],
      "stateMutability": "nonpayable",
      "type": "function"
    },
    {
      "inputs": [
        {
          "internalType": "address",
          "name": "from",
          "type": "address"
        },
        {
          "internalType": "address",
          "name": "to",
          "type": "address"
        },
        {
          "internalType": "uint256",
          "name": "tokenId",
          "type": "uint256"
        },
        {
          "internalType": "bytes",
          "name": "_data",
          "type": "bytes"
        }
      ],
      "name": "safeTransferFrom",
      "outputs": [],
      "stateMutability": "nonpayable",
      "type": "function"
    },
    {
      "inputs": [
        {
          "internalType": "address",
          "name": "operator",
          "type": "address"
        },
        {
          "internalType": "bool",
          "name": "approved",
          "type": "bool"
        }
      ],
      "name": "setApprovalForAll",
      "outputs": [],
      "stateMutability": "nonpayable",
      "type": "function"
    },
    {
      "inputs": [
        {
          "internalType": "bytes4",
          "name": "interfaceId",
          "type": "bytes4"
        }
      ],
      "name": "supportsInterface",
      "outputs": [
        {
          "internalType": "bool",
          "name": "",
          "type": "bool"
        }
      ],
      "stateMutability": "view",
      "type": "function"
    },
    {
      "inputs": [],
      "name": "symbol",
      "outputs": [
        {
          "internalType": "string",
          "name": "",
          "type": "string"
        }
      ],
      "stateMutability": "view",
      "type": "function"
    },
    {
      "inputs": [
        {
          "internalType": "uint256",
          "name": "tokenId",
          "type": "uint256"
        }
      ],
      "name": "tokenURI",
      "outputs": [
        {
          "internalType": "string",
          "name": "",
          "type": "string"
        }
      ],
      "stateMutability": "view",
      "type": "function"
    },
    {
      "inputs": [
        {
          "internalType": "address",
          "name": "from",
          "type": "address"
        },
        {
          "internalType": "address",
          "name": "to",
          "type": "address"
        },
        {
          "internalType": "uint256",
          "name": "tokenId",
          "type": "uint256"
        }
      ],
      "name": "transferFrom",
      "outputs": [],
      "stateMutability": "nonpayable",
      "type": "function"
    },
    {
      "inputs": [
        {
          "internalType": "address",
          "name": "newAdmin",
          "type": "address"
        }
      ],
      "name": "updateAdmin",
      "outputs": [],
      "stateMutability": "nonpayable",
      "type": "function"
    }
  ],
  "bytecode": "0x60806040523480156200001157600080fd5b50604080518082018252600981526822aa24102a37b5b2b760b91b60208083019182528351808501909452600384526208aa8960eb1b90840152815191929183918391620000629160009162000096565b5080516200007890600190602084019062000096565b5050600780546001600160a01b031916331790555062000179915050565b828054620000a4906200013c565b90600052602060002090601f016020900481019282620000c8576000855562000113565b82601f10620000e357805160ff191683800117855562000113565b8280016001018555821562000113579182015b8281111562000113578251825591602001919060010190620000f6565b506200012192915062000125565b5090565b5b8082111562000121576000815560010162000126565b600181811c908216806200015157607f821691505b602082108114156200017357634e487b7160e01b600052602260045260246000fd5b50919050565b61176b80620001896000396000f3fe608060405234801561001057600080fd5b506004361061011b5760003560e01c80636a627842116100b2578063b88d4fde11610081578063e2f273bd11610066578063e2f273bd1461025e578063e985e9c514610271578063f851a440146102ad57600080fd5b8063b88d4fde14610238578063c87b56dd1461024b57600080fd5b80636a627842146101e957806370a08231146101fc57806395d89b411461021d578063a22cb4651461022557600080fd5b806323b872dd116100ee57806323b872dd1461019d57806342842e0e146101b057806342966c68146101c35780636352211e146101d657600080fd5b806301ffc9a71461012057806306fdde0314610148578063081812fc1461015d578063095ea7b314610188575b600080fd5b61013361012e366004611348565b6102c0565b60405190151581526020015b60405180910390f35b610150610312565b60405161013f91906113bd565b61017061016b3660046113d0565b6103a4565b6040516001600160a01b03909116815260200161013f565b61019b610196366004611405565b61043e565b005b61019b6101ab36600461142f565b610554565b61019b6101be36600461142f565b6105db565b61019b6101d13660046113d0565b6105f6565b6101706101e43660046113d0565b61065c565b61019b6101f736600461146b565b6106e7565b61020f61020a36600461146b565b610757565b60405190815260200161013f565b6101506107f1565b61019b610233366004611486565b610800565b61019b6102463660046114d8565b61080b565b6101506102593660046113d0565b610899565b61019b61026c36600461146b565b61098f565b61013361027f3660046115b4565b6001600160a01b03918216600090815260056020908152604080832093909416825291909152205460ff1690565b600754610170906001600160a01b031681565b60006001600160e01b031982166380ac58cd60e01b14806102f157506001600160e01b03198216635b5e139f60e01b145b8061030c57506301ffc9a760e01b6001600160e01b03198316145b92915050565b606060008054610321906115e7565b80601f016020809104026020016040519081016040528092919081815260200182805461034d906115e7565b801561039a5780601f1061036f5761010080835404028352916020019161039a565b820191906000526020600020905b81548152906001019060200180831161037d57829003601f168201915b5050505050905090565b6000818152600260205260408120546001600160a01b03166104225760405162461bcd60e51b815260206004820152602c60248201527f4552433732313a20617070726f76656420717565727920666f72206e6f6e657860448201526b34b9ba32b73a103a37b5b2b760a11b60648201526084015b60405180910390fd5b506000908152600460205260409020546001600160a01b031690565b60006104498261065c565b9050806001600160a01b0316836001600160a01b031614156104b75760405162461bcd60e51b815260206004820152602160248201527f4552433732313a20617070726f76616c20746f2063757272656e74206f776e656044820152603960f91b6064820152608401610419565b336001600160a01b03821614806104d357506104d3813361027f565b6105455760405162461bcd60e51b815260206004820152603860248201527f4552433732313a20617070726f76652063616c6c6572206973206e6f74206f7760448201527f6e6572206e6f7220617070726f76656420666f7220616c6c00000000000000006064820152608401610419565b61054f83836109f8565b505050565b61055e3382610a66565b6105d05760405162461bcd60e51b815260206004820152603160248201527f4552433732313a207472616e736665722063616c6c6572206973206e6f74206f60448201527f776e6572206e6f7220617070726f7665640000000000000000000000000000006064820152608401610419565b61054f838383610b5d565b61054f8383836040518060200160405280600081525061080b565b6007546001600160a01b0316331461063d5760405162461bcd60e51b815260206004820152600a60248201526937b7363c9030b236b4b760b11b6044820152606401610419565b6106473382610a66565b61065057600080fd5b61065981610d11565b50565b6000818152600260205260408120546001600160a01b03168061030c5760405162461bcd60e51b815260206004820152602960248201527f4552433732313a206f776e657220717565727920666f72206e6f6e657869737460448201527f656e7420746f6b656e00000000000000000000000000000000000000000000006064820152608401610419565b6007546001600160a01b0316331461072e5760405162461bcd60e51b815260206004820152600a60248201526937b7363c9030b236b4b760b11b6044820152606401610419565b600061073960065490565b9050610749600680546001019055565b6107538282610dac565b5050565b60006001600160a01b0382166107d55760405162461bcd60e51b815260206004820152602a60248201527f4552433732313a2062616c616e636520717565727920666f7220746865207a6560448201527f726f2061646472657373000000000000000000000000000000000000000000006064820152608401610419565b506001600160a01b031660009081526003602052604090205490565b606060018054610321906115e7565b610753338383610dc6565b6108153383610a66565b6108875760405162461bcd60e51b815260206004820152603160248201527f4552433732313a207472616e736665722063616c6c6572206973206e6f74206f60448201527f776e6572206e6f7220617070726f7665640000000000000000000000000000006064820152608401610419565b61089384848484610e95565b50505050565b6000818152600260205260409020546060906001600160a01b03166109265760405162461bcd60e51b815260206004820152602f60248201527f4552433732314d657461646174613a2055524920717565727920666f72206e6f60448201527f6e6578697374656e7420746f6b656e00000000000000000000000000000000006064820152608401610419565b600061093d60408051602081019091526000815290565b9050600081511161095d5760405180602001604052806000815250610988565b8061096784610f13565b604051602001610978929190611622565b6040516020818303038152906040525b9392505050565b6007546001600160a01b031633146109d65760405162461bcd60e51b815260206004820152600a60248201526937b7363c9030b236b4b760b11b6044820152606401610419565b600780546001600160a01b0319166001600160a01b0392909216919091179055565b600081815260046020526040902080546001600160a01b0319166001600160a01b0384169081179091558190610a2d8261065c565b6001600160a01b03167f8c5be1e5ebec7d5bd14f71427d1e84f3dd0314c0f7b2291e5b200ac8c7c3b92560405160405180910390a45050565b6000818152600260205260408120546001600160a01b0316610adf5760405162461bcd60e51b815260206004820152602c60248201527f4552433732313a206f70657261746f7220717565727920666f72206e6f6e657860448201526b34b9ba32b73a103a37b5b2b760a11b6064820152608401610419565b6000610aea8361065c565b9050806001600160a01b0316846001600160a01b03161480610b255750836001600160a01b0316610b1a846103a4565b6001600160a01b0316145b80610b5557506001600160a01b0380821660009081526005602090815260408083209388168352929052205460ff165b949350505050565b826001600160a01b0316610b708261065c565b6001600160a01b031614610bec5760405162461bcd60e51b815260206004820152602560248201527f4552433732313a207472616e736665722066726f6d20696e636f72726563742060448201527f6f776e65720000000000000000000000000000000000000000000000000000006064820152608401610419565b6001600160a01b038216610c4e5760405162461bcd60e51b8152602060048201526024808201527f4552433732313a207472616e7366657220746f20746865207a65726f206164646044820152637265737360e01b6064820152608401610419565b610c596000826109f8565b6001600160a01b0383166000908152600360205260408120805460019290610c82908490611667565b90915550506001600160a01b0382166000908152600360205260408120805460019290610cb090849061167e565b909155505060008181526002602052604080822080546001600160a01b0319166001600160a01b0386811691821790925591518493918716917fddf252ad1be2c89b69c2b068fc378daa952ba7f163c4a11628f55a4df523b3ef91a4505050565b6000610d1c8261065c565b9050610d296000836109f8565b6001600160a01b0381166000908152600360205260408120805460019290610d52908490611667565b909155505060008281526002602052604080822080546001600160a01b0319169055518391906001600160a01b038416907fddf252ad1be2c89b69c2b068fc378daa952ba7f163c4a11628f55a4df523b3ef908390a45050565b610753828260405180602001604052806000815250611029565b816001600160a01b0316836001600160a01b03161415610e285760405162461bcd60e51b815260206004820152601960248201527f4552433732313a20617070726f766520746f2063616c6c6572000000000000006044820152606401610419565b6001600160a01b03838116600081815260056020908152604080832094871680845294825291829020805460ff191686151590811790915591519182527f17307eab39ab6107e8899845ad3d59bd9653f200f220920489ca2b5937696c31910160405180910390a3505050565b610ea0848484610b5d565b610eac848484846110a7565b6108935760405162461bcd60e51b815260206004820152603260248201527f4552433732313a207472616e7366657220746f206e6f6e20455243373231526560448201527131b2b4bb32b91034b6b83632b6b2b73a32b960711b6064820152608401610419565b606081610f375750506040805180820190915260018152600360fc1b602082015290565b8160005b8115610f615780610f4b81611696565b9150610f5a9050600a836116c7565b9150610f3b565b60008167ffffffffffffffff811115610f7c57610f7c6114c2565b6040519080825280601f01601f191660200182016040528015610fa6576020820181803683370190505b5090505b8415610b5557610fbb600183611667565b9150610fc8600a866116db565b610fd390603061167e565b60f81b818381518110610fe857610fe86116ef565b60200101907effffffffffffffffffffffffffffffffffffffffffffffffffffffffffffff1916908160001a905350611022600a866116c7565b9450610faa565b61103383836111f0565b61104060008484846110a7565b61054f5760405162461bcd60e51b815260206004820152603260248201527f4552433732313a207472616e7366657220746f206e6f6e20455243373231526560448201527131b2b4bb32b91034b6b83632b6b2b73a32b960711b6064820152608401610419565b60006001600160a01b0384163b156111e557604051630a85bd0160e11b81526001600160a01b0385169063150b7a02906110eb903390899088908890600401611705565b6020604051808303816000875af1925050508015611126575060408051601f3d908101601f1916820190925261112391810190611741565b60015b6111cb573d808015611154576040519150601f19603f3d011682016040523d82523d6000602084013e611159565b606091505b5080516111c35760405162461bcd60e51b815260206004820152603260248201527f4552433732313a207472616e7366657220746f206e6f6e20455243373231526560448201527131b2b4bb32b91034b6b83632b6b2b73a32b960711b6064820152608401610419565b805181602001fd5b6001600160e01b031916630a85bd0160e11b149050610b55565b506001949350505050565b6001600160a01b0382166112465760405162461bcd60e51b815260206004820181905260248201527f4552433732313a206d696e7420746f20746865207a65726f20616464726573736044820152606401610419565b6000818152600260205260409020546001600160a01b0316156112ab5760405162461bcd60e51b815260206004820152601c60248201527f4552433732313a20746f6b656e20616c7265616479206d696e746564000000006044820152606401610419565b6001600160a01b03821660009081526003602052604081208054600192906112d490849061167e565b909155505060008181526002602052604080822080546001600160a01b0319166001600160a01b03861690811790915590518392907fddf252ad1be2c89b69c2b068fc378daa952ba7f163c4a11628f55a4df523b3ef908290a45050565b6001600160e01b03198116811461065957600080fd5b60006020828403121561135a57600080fd5b813561098881611332565b60005b83811015611380578181015183820152602001611368565b838111156108935750506000910152565b600081518084526113a9816020860160208601611365565b601f01601f19169290920160200192915050565b6020815260006109886020830184611391565b6000602082840312156113e257600080fd5b5035919050565b80356001600160a01b038116811461140057600080fd5b919050565b6000806040838503121561141857600080fd5b611421836113e9565b946020939093013593505050565b60008060006060848603121561144457600080fd5b61144d846113e9565b925061145b602085016113e9565b9150604084013590509250925092565b60006020828403121561147d57600080fd5b610988826113e9565b6000806040838503121561149957600080fd5b6114a2836113e9565b9150602083013580151581146114b757600080fd5b809150509250929050565b634e487b7160e01b600052604160045260246000fd5b600080600080608085870312156114ee57600080fd5b6114f7856113e9565b9350611505602086016113e9565b925060408501359150606085013567ffffffffffffffff8082111561152957600080fd5b818701915087601f83011261153d57600080fd5b81358181111561154f5761154f6114c2565b604051601f8201601f19908116603f01168101908382118183101715611577576115776114c2565b816040528281528a602084870101111561159057600080fd5b82602086016020830137600060208483010152809550505050505092959194509250565b600080604083850312156115c757600080fd5b6115d0836113e9565b91506115de602084016113e9565b90509250929050565b600181811c908216806115fb57607f821691505b6020821081141561161c57634e487b7160e01b600052602260045260246000fd5b50919050565b60008351611634818460208801611365565b835190830190611648818360208801611365565b01949350505050565b634e487b7160e01b600052601160045260246000fd5b60008282101561167957611679611651565b500390565b6000821982111561169157611691611651565b500190565b60006000198214156116aa576116aa611651565b5060010190565b634e487b7160e01b600052601260045260246000fd5b6000826116d6576116d66116b1565b500490565b6000826116ea576116ea6116b1565b500690565b634e487b7160e01b600052603260045260246000fd5b60006001600160a01b038087168352808616602084015250836040830152608060608301526117376080830184611391565b9695505050505050565b60006020828403121561175357600080fd5b81516109888161133256fea164736f6c634300080a000a",
  "linkReferences": {},
  "deployedLinkReferences": {}
}